{
	"data": {
		"bytecode": {
			"linkReferences": {},
			"object": "6080604052348015600e575f80fd5b50610d1d8061001c5f395ff3fe608060405234801561000f575f80fd5b5060043610610049575f3560e01c80620b2bda1461004d57806371a244b3146100695780638d97767214610085578063ad8ef91c146100b8575b5f80fd5b61006760048036038101906100629190610524565b6100d6565b005b610083600480360381019061007e919061060a565b610226565b005b61009f600480360381019061009a9190610524565b610406565b6040516100af949392919061070f565b60405180910390f35b6100c06104e3565b6040516100cd9190610759565b60405180910390f35b5f805f8381526020019081526020015f2090503373ffffffffffffffffffffffffffffffffffffffff16816001015f9054906101000a900473ffffffffffffffffffffffffffffffffffffffff1673ffffffffffffffffffffffffffffffffffffffff161461017a576040517f08c379a0000000000000000000000000000000000000000000000000000000008152600401610171906107e2565b60405180910390fd5b8060010160149054906101000a900460ff16156101cc576040517f08c379a00000000000000000000000000000000000000000000000000000000081526004016101c39061084a565b60405180910390fd5b60018160010160146101000a81548160ff0219169083151502179055507fbb5889c77948badf90e8a5c73d55265e5f5d6e4837a79a78c5669691b897faed823360405161021a929190610868565b60405180910390a15050565b5f73ffffffffffffffffffffffffffffffffffffffff168173ffffffffffffffffffffffffffffffffffffffff1603610294576040517f08c379a000000000000000000000000000000000000000000000000000000000815260040161028b906108d9565b60405180910390fd5b60015f8154809291906102a690610924565b9190505550604051806080016040528084848080601f0160208091040260200160405190810160405280939291908181526020018383808284375f81840152601f19601f8201169050808301925050505050505081526020018273ffffffffffffffffffffffffffffffffffffffff1681526020015f15158152602001428152505f8060015481526020019081526020015f205f820151815f01908161034c9190610b92565b506020820151816001015f6101000a81548173ffffffffffffffffffffffffffffffffffffffff021916908373ffffffffffffffffffffffffffffffffffffffff16021790555060408201518160010160146101000a81548160ff021916908315150217905550606082015181600201559050507f4fd9515368c995a9e1ea8ad226f20427c8f4523a75c5b9481bdd7f358d8f666c600154848484426040516103f9959493929190610c9b565b60405180910390a1505050565b5f602052805f5260405f205f91509050805f018054610424906109c5565b80601f0160208091040260200160405190810160405280929190818152602001828054610450906109c5565b801561049b5780601f106104725761010080835404028352916020019161049b565b820191905f5260205f20905b81548152906001019060200180831161047e57829003601f168201915b505050505090806001015f9054906101000a900473ffffffffffffffffffffffffffffffffffffffff16908060010160149054906101000a900460ff16908060020154905084565b60015481565b5f80fd5b5f80fd5b5f819050919050565b610503816104f1565b811461050d575f80fd5b50565b5f8135905061051e816104fa565b92915050565b5f60208284031215610539576105386104e9565b5b5f61054684828501610510565b91505092915050565b5f80fd5b5f80fd5b5f80fd5b5f8083601f8401126105705761056f61054f565b5b8235905067ffffffffffffffff81111561058d5761058c610553565b5b6020830191508360018202830111156105a9576105a8610557565b5b9250929050565b5f73ffffffffffffffffffffffffffffffffffffffff82169050919050565b5f6105d9826105b0565b9050919050565b6105e9816105cf565b81146105f3575f80fd5b50565b5f81359050610604816105e0565b92915050565b5f805f60408486031215610621576106206104e9565b5b5f84013567ffffffffffffffff81111561063e5761063d6104ed565b5b61064a8682870161055b565b9350935050602061065d868287016105f6565b9150509250925092565b5f81519050919050565b5f82825260208201905092915050565b8281835e5f83830152505050565b5f601f19601f8301169050919050565b5f6106a982610667565b6106b38185610671565b93506106c3818560208601610681565b6106cc8161068f565b840191505092915050565b6106e0816105cf565b82525050565b5f8115159050919050565b6106fa816106e6565b82525050565b610709816104f1565b82525050565b5f6080820190508181035f830152610727818761069f565b905061073660208301866106d7565b61074360408301856106f1565b6107506060830184610700565b95945050505050565b5f60208201905061076c5f830184610700565b92915050565b7f596f7520617265206e6f74207468652061737369676e6565206f6620746869735f8201527f207461736b000000000000000000000000000000000000000000000000000000602082015250565b5f6107cc602583610671565b91506107d782610772565b604082019050919050565b5f6020820190508181035f8301526107f9816107c0565b9050919050565b7f5461736b20616c726561647920636f6d706c65746564000000000000000000005f82015250565b5f610834601683610671565b915061083f82610800565b602082019050919050565b5f6020820190508181035f83015261086181610828565b9050919050565b5f60408201905061087b5f830185610700565b61088860208301846106d7565b9392505050565b7f496e76616c69642061737369676e6565206164647265737300000000000000005f82015250565b5f6108c3601883610671565b91506108ce8261088f565b602082019050919050565b5f6020820190508181035f8301526108f0816108b7565b9050919050565b7f4e487b71000000000000000000000000000000000000000000000000000000005f52601160045260245ffd5b5f61092e826104f1565b91507fffffffffffffffffffffffffffffffffffffffffffffffffffffffffffffffff82036109605761095f6108f7565b5b600182019050919050565b7f4e487b71000000000000000000000000000000000000000000000000000000005f52604160045260245ffd5b7f4e487b71000000000000000000000000000000000000000000000000000000005f52602260045260245ffd5b5f60028204905060018216806109dc57607f821691505b6020821081036109ef576109ee610998565b5b50919050565b5f819050815f5260205f209050919050565b5f6020601f8301049050919050565b5f82821b905092915050565b5f60088302610a517fffffffffffffffffffffffffffffffffffffffffffffffffffffffffffffffff82610a16565b610a5b8683610a16565b95508019841693508086168417925050509392505050565b5f819050919050565b5f610a96610a91610a8c846104f1565b610a73565b6104f1565b9050919050565b5f819050919050565b610aaf83610a7c565b610ac3610abb82610a9d565b848454610a22565b825550505050565b5f90565b610ad7610acb565b610ae2818484610aa6565b505050565b5b81811015610b0557610afa5f82610acf565b600181019050610ae8565b5050565b601f821115610b4a57610b1b816109f5565b610b2484610a07565b81016020851015610b33578190505b610b47610b3f85610a07565b830182610ae7565b50505b505050565b5f82821c905092915050565b5f610b6a5f1984600802610b4f565b1980831691505092915050565b5f610b828383610b5b565b9150826002028217905092915050565b610b9b82610667565b67ffffffffffffffff811115610bb457610bb361096b565b5b610bbe82546109c5565b610bc9828285610b09565b5f60209050601f831160018114610bfa575f8415610be8578287015190505b610bf28582610b77565b865550610c59565b601f198416610c08866109f5565b5f5b82811015610c2f57848901518255600182019150602085019450602081019050610c0a565b86831015610c4c5784890151610c48601f891682610b5b565b8355505b6001600288020188555050505b505050505050565b828183375f83830152505050565b5f610c7a8385610671565b9350610c87838584610c61565b610c908361068f565b840190509392505050565b5f608082019050610cae5f830188610700565b8181036020830152610cc1818688610c6f565b9050610cd060408301856106d7565b610cdd6060830184610700565b969550505050505056fea264697066735822122054b4d64d61e73ecaee86e74a9c2ca11e4ba3fab25953128b3663a6e8114d37a364736f6c634300081a0033",
			"opcodes": "PUSH1 0x80 PUSH1 0x40 MSTORE CALLVALUE DUP1 ISZERO PUSH1 0xE JUMPI PUSH0 DUP1 REVERT JUMPDEST POP PUSH2 0xD1D DUP1 PUSH2 0x1C PUSH0 CODECOPY PUSH0 RETURN INVALID PUSH1 0x80 PUSH1 0x40 MSTORE CALLVALUE DUP1 ISZERO PUSH2 0xF JUMPI PUSH0 DUP1 REVERT JUMPDEST POP PUSH1 0x4 CALLDATASIZE LT PUSH2 0x49 JUMPI PUSH0 CALLDATALOAD PUSH1 0xE0 SHR DUP1 PUSH3 0xB2BDA EQ PUSH2 0x4D JUMPI DUP1 PUSH4 0x71A244B3 EQ PUSH2 0x69 JUMPI DUP1 PUSH4 0x8D977672 EQ PUSH2 0x85 JUMPI DUP1 PUSH4 0xAD8EF91C EQ PUSH2 0xB8 JUMPI JUMPDEST PUSH0 DUP1 REVERT JUMPDEST PUSH2 0x67 PUSH1 0x4 DUP1 CALLDATASIZE SUB DUP2 ADD SWAP1 PUSH2 0x62 SWAP2 SWAP1 PUSH2 0x524 JUMP JUMPDEST PUSH2 0xD6 JUMP JUMPDEST STOP JUMPDEST PUSH2 0x83 PUSH1 0x4 DUP1 CALLDATASIZE SUB DUP2 ADD SWAP1 PUSH2 0x7E SWAP2 SWAP1 PUSH2 0x60A JUMP JUMPDEST PUSH2 0x226 JUMP JUMPDEST STOP JUMPDEST PUSH2 0x9F PUSH1 0x4 DUP1 CALLDATASIZE SUB DUP2 ADD SWAP1 PUSH2 0x9A SWAP2 SWAP1 PUSH2 0x524 JUMP JUMPDEST PUSH2 0x406 JUMP JUMPDEST PUSH1 0x40 MLOAD PUSH2 0xAF SWAP5 SWAP4 SWAP3 SWAP2 SWAP1 PUSH2 0x70F JUMP JUMPDEST PUSH1 0x40 MLOAD DUP1 SWAP2 SUB SWAP1 RETURN JUMPDEST PUSH2 0xC0 PUSH2 0x4E3 JUMP JUMPDEST PUSH1 0x40 MLOAD PUSH2 0xCD SWAP2 SWAP1 PUSH2 0x759 JUMP JUMPDEST PUSH1 0x40 MLOAD DUP1 SWAP2 SUB SWAP1 RETURN JUMPDEST PUSH0 DUP1 PUSH0 DUP4 DUP2 MSTORE PUSH1 0x20 ADD SWAP1 DUP2 MSTORE PUSH1 0x20 ADD PUSH0 KECCAK256 SWAP1 POP CALLER PUSH20 0xFFFFFFFFFFFFFFFFFFFFFFFFFFFFFFFFFFFFFFFF AND DUP2 PUSH1 0x1 ADD PUSH0 SWAP1 SLOAD SWAP1 PUSH2 0x100 EXP SWAP1 DIV PUSH20 0xFFFFFFFFFFFFFFFFFFFFFFFFFFFFFFFFFFFFFFFF AND PUSH20 0xFFFFFFFFFFFFFFFFFFFFFFFFFFFFFFFFFFFFFFFF AND EQ PUSH2 0x17A JUMPI PUSH1 0x40 MLOAD PUSH32 0x8C379A000000000000000000000000000000000000000000000000000000000 DUP2 MSTORE PUSH1 0x4 ADD PUSH2 0x171 SWAP1 PUSH2 0x7E2 JUMP JUMPDEST PUSH1 0x40 MLOAD DUP1 SWAP2 SUB SWAP1 REVERT JUMPDEST DUP1 PUSH1 0x1 ADD PUSH1 0x14 SWAP1 SLOAD SWAP1 PUSH2 0x100 EXP SWAP1 DIV PUSH1 0xFF AND ISZERO PUSH2 0x1CC JUMPI PUSH1 0x40 MLOAD PUSH32 0x8C379A000000000000000000000000000000000000000000000000000000000 DUP2 MSTORE PUSH1 0x4 ADD PUSH2 0x1C3 SWAP1 PUSH2 0x84A JUMP JUMPDEST PUSH1 0x40 MLOAD DUP1 SWAP2 SUB SWAP1 REVERT JUMPDEST PUSH1 0x1 DUP2 PUSH1 0x1 ADD PUSH1 0x14 PUSH2 0x100 EXP DUP2 SLOAD DUP2 PUSH1 0xFF MUL NOT AND SWAP1 DUP4 ISZERO ISZERO MUL OR SWAP1 SSTORE POP PUSH32 0xBB5889C77948BADF90E8A5C73D55265E5F5D6E4837A79A78C5669691B897FAED DUP3 CALLER PUSH1 0x40 MLOAD PUSH2 0x21A SWAP3 SWAP2 SWAP1 PUSH2 0x868 JUMP JUMPDEST PUSH1 0x40 MLOAD DUP1 SWAP2 SUB SWAP1 LOG1 POP POP JUMP JUMPDEST PUSH0 PUSH20 0xFFFFFFFFFFFFFFFFFFFFFFFFFFFFFFFFFFFFFFFF AND DUP2 PUSH20 0xFFFFFFFFFFFFFFFFFFFFFFFFFFFFFFFFFFFFFFFF AND SUB PUSH2 0x294 JUMPI PUSH1 0x40 MLOAD PUSH32 0x8C379A000000000000000000000000000000000000000000000000000000000 DUP2 MSTORE PUSH1 0x4 ADD PUSH2 0x28B SWAP1 PUSH2 0x8D9 JUMP JUMPDEST PUSH1 0x40 MLOAD DUP1 SWAP2 SUB SWAP1 REVERT JUMPDEST PUSH1 0x1 PUSH0 DUP2 SLOAD DUP1 SWAP3 SWAP2 SWAP1 PUSH2 0x2A6 SWAP1 PUSH2 0x924 JUMP JUMPDEST SWAP2 SWAP1 POP SSTORE POP PUSH1 0x40 MLOAD DUP1 PUSH1 0x80 ADD PUSH1 0x40 MSTORE DUP1 DUP5 DUP5 DUP1 DUP1 PUSH1 0x1F ADD PUSH1 0x20 DUP1 SWAP2 DIV MUL PUSH1 0x20 ADD PUSH1 0x40 MLOAD SWAP1 DUP2 ADD PUSH1 0x40 MSTORE DUP1 SWAP4 SWAP3 SWAP2 SWAP1 DUP2 DUP2 MSTORE PUSH1 0x20 ADD DUP4 DUP4 DUP1 DUP3 DUP5 CALLDATACOPY PUSH0 DUP2 DUP5 ADD MSTORE PUSH1 0x1F NOT PUSH1 0x1F DUP3 ADD AND SWAP1 POP DUP1 DUP4 ADD SWAP3 POP POP POP POP POP POP POP DUP2 MSTORE PUSH1 0x20 ADD DUP3 PUSH20 0xFFFFFFFFFFFFFFFFFFFFFFFFFFFFFFFFFFFFFFFF AND DUP2 MSTORE PUSH1 0x20 ADD PUSH0 ISZERO ISZERO DUP2 MSTORE PUSH1 0x20 ADD TIMESTAMP DUP2 MSTORE POP PUSH0 DUP1 PUSH1 0x1 SLOAD DUP2 MSTORE PUSH1 0x20 ADD SWAP1 DUP2 MSTORE PUSH1 0x20 ADD PUSH0 KECCAK256 PUSH0 DUP3 ADD MLOAD DUP2 PUSH0 ADD SWAP1 DUP2 PUSH2 0x34C SWAP2 SWAP1 PUSH2 0xB92 JUMP JUMPDEST POP PUSH1 0x20 DUP3 ADD MLOAD DUP2 PUSH1 0x1 ADD PUSH0 PUSH2 0x100 EXP DUP2 SLOAD DUP2 PUSH20 0xFFFFFFFFFFFFFFFFFFFFFFFFFFFFFFFFFFFFFFFF MUL NOT AND SWAP1 DUP4 PUSH20 0xFFFFFFFFFFFFFFFFFFFFFFFFFFFFFFFFFFFFFFFF AND MUL OR SWAP1 SSTORE POP PUSH1 0x40 DUP3 ADD MLOAD DUP2 PUSH1 0x1 ADD PUSH1 0x14 PUSH2 0x100 EXP DUP2 SLOAD DUP2 PUSH1 0xFF MUL NOT AND SWAP1 DUP4 ISZERO ISZERO MUL OR SWAP1 SSTORE POP PUSH1 0x60 DUP3 ADD MLOAD DUP2 PUSH1 0x2 ADD SSTORE SWAP1 POP POP PUSH32 0x4FD9515368C995A9E1EA8AD226F20427C8F4523A75C5B9481BDD7F358D8F666C PUSH1 0x1 SLOAD DUP5 DUP5 DUP5 TIMESTAMP PUSH1 0x40 MLOAD PUSH2 0x3F9 SWAP6 SWAP5 SWAP4 SWAP3 SWAP2 SWAP1 PUSH2 0xC9B JUMP JUMPDEST PUSH1 0x40 MLOAD DUP1 SWAP2 SUB SWAP1 LOG1 POP POP POP JUMP JUMPDEST PUSH0 PUSH1 0x20 MSTORE DUP1 PUSH0 MSTORE PUSH1 0x40 PUSH0 KECCAK256 PUSH0 SWAP2 POP SWAP1 POP DUP1 PUSH0 ADD DUP1 SLOAD PUSH2 0x424 SWAP1 PUSH2 0x9C5 JUMP JUMPDEST DUP1 PUSH1 0x1F ADD PUSH1 0x20 DUP1 SWAP2 DIV MUL PUSH1 0x20 ADD PUSH1 0x40 MLOAD SWAP1 DUP2 ADD PUSH1 0x40 MSTORE DUP1 SWAP3 SWAP2 SWAP1 DUP2 DUP2 MSTORE PUSH1 0x20 ADD DUP3 DUP1 SLOAD PUSH2 0x450 SWAP1 PUSH2 0x9C5 JUMP JUMPDEST DUP1 ISZERO PUSH2 0x49B JUMPI DUP1 PUSH1 0x1F LT PUSH2 0x472 JUMPI PUSH2 0x100 DUP1 DUP4 SLOAD DIV MUL DUP4 MSTORE SWAP2 PUSH1 0x20 ADD SWAP2 PUSH2 0x49B JUMP JUMPDEST DUP3 ADD SWAP2 SWAP1 PUSH0 MSTORE PUSH1 0x20 PUSH0 KECCAK256 SWAP1 JUMPDEST DUP2 SLOAD DUP2 MSTORE SWAP1 PUSH1 0x1 ADD SWAP1 PUSH1 0x20 ADD DUP1 DUP4 GT PUSH2 0x47E JUMPI DUP3 SWAP1 SUB PUSH1 0x1F AND DUP3 ADD SWAP2 JUMPDEST POP POP POP POP POP SWAP1 DUP1 PUSH1 0x1 ADD PUSH0 SWAP1 SLOAD SWAP1 PUSH2 0x100 EXP SWAP1 DIV PUSH20 0xFFFFFFFFFFFFFFFFFFFFFFFFFFFFFFFFFFFFFFFF AND SWAP1 DUP1 PUSH1 0x1 ADD PUSH1 0x14 SWAP1 SLOAD SWAP1 PUSH2 0x100 EXP SWAP1 DIV PUSH1 0xFF AND SWAP1 DUP1 PUSH1 0x2 ADD SLOAD SWAP1 POP DUP5 JUMP JUMPDEST PUSH1 0x1 SLOAD DUP2 JUMP JUMPDEST PUSH0 DUP1 REVERT JUMPDEST PUSH0 DUP1 REVERT JUMPDEST PUSH0 DUP2 SWAP1 POP SWAP2 SWAP1 POP JUMP JUMPDEST PUSH2 0x503 DUP2 PUSH2 0x4F1 JUMP JUMPDEST DUP2 EQ PUSH2 0x50D JUMPI PUSH0 DUP1 REVERT JUMPDEST POP JUMP JUMPDEST PUSH0 DUP2 CALLDATALOAD SWAP1 POP PUSH2 0x51E DUP2 PUSH2 0x4FA JUMP JUMPDEST SWAP3 SWAP2 POP POP JUMP JUMPDEST PUSH0 PUSH1 0x20 DUP3 DUP5 SUB SLT ISZERO PUSH2 0x539 JUMPI PUSH2 0x538 PUSH2 0x4E9 JUMP JUMPDEST JUMPDEST PUSH0 PUSH2 0x546 DUP5 DUP3 DUP6 ADD PUSH2 0x510 JUMP JUMPDEST SWAP2 POP POP SWAP3 SWAP2 POP POP JUMP JUMPDEST PUSH0 DUP1 REVERT JUMPDEST PUSH0 DUP1 REVERT JUMPDEST PUSH0 DUP1 REVERT JUMPDEST PUSH0 DUP1 DUP4 PUSH1 0x1F DUP5 ADD SLT PUSH2 0x570 JUMPI PUSH2 0x56F PUSH2 0x54F JUMP JUMPDEST JUMPDEST DUP3 CALLDATALOAD SWAP1 POP PUSH8 0xFFFFFFFFFFFFFFFF DUP2 GT ISZERO PUSH2 0x58D JUMPI PUSH2 0x58C PUSH2 0x553 JUMP JUMPDEST JUMPDEST PUSH1 0x20 DUP4 ADD SWAP2 POP DUP4 PUSH1 0x1 DUP3 MUL DUP4 ADD GT ISZERO PUSH2 0x5A9 JUMPI PUSH2 0x5A8 PUSH2 0x557 JUMP JUMPDEST JUMPDEST SWAP3 POP SWAP3 SWAP1 POP JUMP JUMPDEST PUSH0 PUSH20 0xFFFFFFFFFFFFFFFFFFFFFFFFFFFFFFFFFFFFFFFF DUP3 AND SWAP1 POP SWAP2 SWAP1 POP JUMP JUMPDEST PUSH0 PUSH2 0x5D9 DUP3 PUSH2 0x5B0 JUMP JUMPDEST SWAP1 POP SWAP2 SWAP1 POP JUMP JUMPDEST PUSH2 0x5E9 DUP2 PUSH2 0x5CF JUMP JUMPDEST DUP2 EQ PUSH2 0x5F3 JUMPI PUSH0 DUP1 REVERT JUMPDEST POP JUMP JUMPDEST PUSH0 DUP2 CALLDATALOAD SWAP1 POP PUSH2 0x604 DUP2 PUSH2 0x5E0 JUMP JUMPDEST SWAP3 SWAP2 POP POP JUMP JUMPDEST PUSH0 DUP1 PUSH0 PUSH1 0x40 DUP5 DUP7 SUB SLT ISZERO PUSH2 0x621 JUMPI PUSH2 0x620 PUSH2 0x4E9 JUMP JUMPDEST JUMPDEST PUSH0 DUP5 ADD CALLDATALOAD PUSH8 0xFFFFFFFFFFFFFFFF DUP2 GT ISZERO PUSH2 0x63E JUMPI PUSH2 0x63D PUSH2 0x4ED JUMP JUMPDEST JUMPDEST PUSH2 0x64A DUP7 DUP3 DUP8 ADD PUSH2 0x55B JUMP JUMPDEST SWAP4 POP SWAP4 POP POP PUSH1 0x20 PUSH2 0x65D DUP7 DUP3 DUP8 ADD PUSH2 0x5F6 JUMP JUMPDEST SWAP2 POP POP SWAP3 POP SWAP3 POP SWAP3 JUMP JUMPDEST PUSH0 DUP2 MLOAD SWAP1 POP SWAP2 SWAP1 POP JUMP JUMPDEST PUSH0 DUP3 DUP3 MSTORE PUSH1 0x20 DUP3 ADD SWAP1 POP SWAP3 SWAP2 POP POP JUMP JUMPDEST DUP3 DUP2 DUP4 MCOPY PUSH0 DUP4 DUP4 ADD MSTORE POP POP POP JUMP JUMPDEST PUSH0 PUSH1 0x1F NOT PUSH1 0x1F DUP4 ADD AND SWAP1 POP SWAP2 SWAP1 POP JUMP JUMPDEST PUSH0 PUSH2 0x6A9 DUP3 PUSH2 0x667 JUMP JUMPDEST PUSH2 0x6B3 DUP2 DUP6 PUSH2 0x671 JUMP JUMPDEST SWAP4 POP PUSH2 0x6C3 DUP2 DUP6 PUSH1 0x20 DUP7 ADD PUSH2 0x681 JUMP JUMPDEST PUSH2 0x6CC DUP2 PUSH2 0x68F JUMP JUMPDEST DUP5 ADD SWAP2 POP POP SWAP3 SWAP2 POP POP JUMP JUMPDEST PUSH2 0x6E0 DUP2 PUSH2 0x5CF JUMP JUMPDEST DUP3 MSTORE POP POP JUMP JUMPDEST PUSH0 DUP2 ISZERO ISZERO SWAP1 POP SWAP2 SWAP1 POP JUMP JUMPDEST PUSH2 0x6FA DUP2 PUSH2 0x6E6 JUMP JUMPDEST DUP3 MSTORE POP POP JUMP JUMPDEST PUSH2 0x709 DUP2 PUSH2 0x4F1 JUMP JUMPDEST DUP3 MSTORE POP POP JUMP JUMPDEST PUSH0 PUSH1 0x80 DUP3 ADD SWAP1 POP DUP2 DUP2 SUB PUSH0 DUP4 ADD MSTORE PUSH2 0x727 DUP2 DUP8 PUSH2 0x69F JUMP JUMPDEST SWAP1 POP PUSH2 0x736 PUSH1 0x20 DUP4 ADD DUP7 PUSH2 0x6D7 JUMP JUMPDEST PUSH2 0x743 PUSH1 0x40 DUP4 ADD DUP6 PUSH2 0x6F1 JUMP JUMPDEST PUSH2 0x750 PUSH1 0x60 DUP4 ADD DUP5 PUSH2 0x700 JUMP JUMPDEST SWAP6 SWAP5 POP POP POP POP POP JUMP JUMPDEST PUSH0 PUSH1 0x20 DUP3 ADD SWAP1 POP PUSH2 0x76C PUSH0 DUP4 ADD DUP5 PUSH2 0x700 JUMP JUMPDEST SWAP3 SWAP2 POP POP JUMP JUMPDEST PUSH32 0x596F7520617265206E6F74207468652061737369676E6565206F662074686973 PUSH0 DUP3 ADD MSTORE PUSH32 0x207461736B000000000000000000000000000000000000000000000000000000 PUSH1 0x20 DUP3 ADD MSTORE POP JUMP JUMPDEST PUSH0 PUSH2 0x7CC PUSH1 0x25 DUP4 PUSH2 0x671 JUMP JUMPDEST SWAP2 POP PUSH2 0x7D7 DUP3 PUSH2 0x772 JUMP JUMPDEST PUSH1 0x40 DUP3 ADD SWAP1 POP SWAP2 SWAP1 POP JUMP JUMPDEST PUSH0 PUSH1 0x20 DUP3 ADD SWAP1 POP DUP2 DUP2 SUB PUSH0 DUP4 ADD MSTORE PUSH2 0x7F9 DUP2 PUSH2 0x7C0 JUMP JUMPDEST SWAP1 POP SWAP2 SWAP1 POP JUMP JUMPDEST PUSH32 0x5461736B20616C726561647920636F6D706C6574656400000000000000000000 PUSH0 DUP3 ADD MSTORE POP JUMP JUMPDEST PUSH0 PUSH2 0x834 PUSH1 0x16 DUP4 PUSH2 0x671 JUMP JUMPDEST SWAP2 POP PUSH2 0x83F DUP3 PUSH2 0x800 JUMP JUMPDEST PUSH1 0x20 DUP3 ADD SWAP1 POP SWAP2 SWAP1 POP JUMP JUMPDEST PUSH0 PUSH1 0x20 DUP3 ADD SWAP1 POP DUP2 DUP2 SUB PUSH0 DUP4 ADD MSTORE PUSH2 0x861 DUP2 PUSH2 0x828 JUMP JUMPDEST SWAP1 POP SWAP2 SWAP1 POP JUMP JUMPDEST PUSH0 PUSH1 0x40 DUP3 ADD SWAP1 POP PUSH2 0x87B PUSH0 DUP4 ADD DUP6 PUSH2 0x700 JUMP JUMPDEST PUSH2 0x888 PUSH1 0x20 DUP4 ADD DUP5 PUSH2 0x6D7 JUMP JUMPDEST SWAP4 SWAP3 POP POP POP JUMP JUMPDEST PUSH32 0x496E76616C69642061737369676E656520616464726573730000000000000000 PUSH0 DUP3 ADD MSTORE POP JUMP JUMPDEST PUSH0 PUSH2 0x8C3 PUSH1 0x18 DUP4 PUSH2 0x671 JUMP JUMPDEST SWAP2 POP PUSH2 0x8CE DUP3 PUSH2 0x88F JUMP JUMPDEST PUSH1 0x20 DUP3 ADD SWAP1 POP SWAP2 SWAP1 POP JUMP JUMPDEST PUSH0 PUSH1 0x20 DUP3 ADD SWAP1 POP DUP2 DUP2 SUB PUSH0 DUP4 ADD MSTORE PUSH2 0x8F0 DUP2 PUSH2 0x8B7 JUMP JUMPDEST SWAP1 POP SWAP2 SWAP1 POP JUMP JUMPDEST PUSH32 0x4E487B7100000000000000000000000000000000000000000000000000000000 PUSH0 MSTORE PUSH1 0x11 PUSH1 0x4 MSTORE PUSH1 0x24 PUSH0 REVERT JUMPDEST PUSH0 PUSH2 0x92E DUP3 PUSH2 0x4F1 JUMP JUMPDEST SWAP2 POP PUSH32 0xFFFFFFFFFFFFFFFFFFFFFFFFFFFFFFFFFFFFFFFFFFFFFFFFFFFFFFFFFFFFFFFF DUP3 SUB PUSH2 0x960 JUMPI PUSH2 0x95F PUSH2 0x8F7 JUMP JUMPDEST JUMPDEST PUSH1 0x1 DUP3 ADD SWAP1 POP SWAP2 SWAP1 POP JUMP JUMPDEST PUSH32 0x4E487B7100000000000000000000000000000000000000000000000000000000 PUSH0 MSTORE PUSH1 0x41 PUSH1 0x4 MSTORE PUSH1 0x24 PUSH0 REVERT JUMPDEST PUSH32 0x4E487B7100000000000000000000000000000000000000000000000000000000 PUSH0 MSTORE PUSH1 0x22 PUSH1 0x4 MSTORE PUSH1 0x24 PUSH0 REVERT JUMPDEST PUSH0 PUSH1 0x2 DUP3 DIV SWAP1 POP PUSH1 0x1 DUP3 AND DUP1 PUSH2 0x9DC JUMPI PUSH1 0x7F DUP3 AND SWAP2 POP JUMPDEST PUSH1 0x20 DUP3 LT DUP2 SUB PUSH2 0x9EF JUMPI PUSH2 0x9EE PUSH2 0x998 JUMP JUMPDEST JUMPDEST POP SWAP2 SWAP1 POP JUMP JUMPDEST PUSH0 DUP2 SWAP1 POP DUP2 PUSH0 MSTORE PUSH1 0x20 PUSH0 KECCAK256 SWAP1 POP SWAP2 SWAP1 POP JUMP JUMPDEST PUSH0 PUSH1 0x20 PUSH1 0x1F DUP4 ADD DIV SWAP1 POP SWAP2 SWAP1 POP JUMP JUMPDEST PUSH0 DUP3 DUP3 SHL SWAP1 POP SWAP3 SWAP2 POP POP JUMP JUMPDEST PUSH0 PUSH1 0x8 DUP4 MUL PUSH2 0xA51 PUSH32 0xFFFFFFFFFFFFFFFFFFFFFFFFFFFFFFFFFFFFFFFFFFFFFFFFFFFFFFFFFFFFFFFF DUP3 PUSH2 0xA16 JUMP JUMPDEST PUSH2 0xA5B DUP7 DUP4 PUSH2 0xA16 JUMP JUMPDEST SWAP6 POP DUP1 NOT DUP5 AND SWAP4 POP DUP1 DUP7 AND DUP5 OR SWAP3 POP POP POP SWAP4 SWAP3 POP POP POP JUMP JUMPDEST PUSH0 DUP2 SWAP1 POP SWAP2 SWAP1 POP JUMP JUMPDEST PUSH0 PUSH2 0xA96 PUSH2 0xA91 PUSH2 0xA8C DUP5 PUSH2 0x4F1 JUMP JUMPDEST PUSH2 0xA73 JUMP JUMPDEST PUSH2 0x4F1 JUMP JUMPDEST SWAP1 POP SWAP2 SWAP1 POP JUMP JUMPDEST PUSH0 DUP2 SWAP1 POP SWAP2 SWAP1 POP JUMP JUMPDEST PUSH2 0xAAF DUP4 PUSH2 0xA7C JUMP JUMPDEST PUSH2 0xAC3 PUSH2 0xABB DUP3 PUSH2 0xA9D JUMP JUMPDEST DUP5 DUP5 SLOAD PUSH2 0xA22 JUMP JUMPDEST DUP3 SSTORE POP POP POP POP JUMP JUMPDEST PUSH0 SWAP1 JUMP JUMPDEST PUSH2 0xAD7 PUSH2 0xACB JUMP JUMPDEST PUSH2 0xAE2 DUP2 DUP5 DUP5 PUSH2 0xAA6 JUMP JUMPDEST POP POP POP JUMP JUMPDEST JUMPDEST DUP2 DUP2 LT ISZERO PUSH2 0xB05 JUMPI PUSH2 0xAFA PUSH0 DUP3 PUSH2 0xACF JUMP JUMPDEST PUSH1 0x1 DUP2 ADD SWAP1 POP PUSH2 0xAE8 JUMP JUMPDEST POP POP JUMP JUMPDEST PUSH1 0x1F DUP3 GT ISZERO PUSH2 0xB4A JUMPI PUSH2 0xB1B DUP2 PUSH2 0x9F5 JUMP JUMPDEST PUSH2 0xB24 DUP5 PUSH2 0xA07 JUMP JUMPDEST DUP2 ADD PUSH1 0x20 DUP6 LT ISZERO PUSH2 0xB33 JUMPI DUP2 SWAP1 POP JUMPDEST PUSH2 0xB47 PUSH2 0xB3F DUP6 PUSH2 0xA07 JUMP JUMPDEST DUP4 ADD DUP3 PUSH2 0xAE7 JUMP JUMPDEST POP POP JUMPDEST POP POP POP JUMP JUMPDEST PUSH0 DUP3 DUP3 SHR SWAP1 POP SWAP3 SWAP2 POP POP JUMP JUMPDEST PUSH0 PUSH2 0xB6A PUSH0 NOT DUP5 PUSH1 0x8 MUL PUSH2 0xB4F JUMP JUMPDEST NOT DUP1 DUP4 AND SWAP2 POP POP SWAP3 SWAP2 POP POP JUMP JUMPDEST PUSH0 PUSH2 0xB82 DUP4 DUP4 PUSH2 0xB5B JUMP JUMPDEST SWAP2 POP DUP3 PUSH1 0x2 MUL DUP3 OR SWAP1 POP SWAP3 SWAP2 POP POP JUMP JUMPDEST PUSH2 0xB9B DUP3 PUSH2 0x667 JUMP JUMPDEST PUSH8 0xFFFFFFFFFFFFFFFF DUP2 GT ISZERO PUSH2 0xBB4 JUMPI PUSH2 0xBB3 PUSH2 0x96B JUMP JUMPDEST JUMPDEST PUSH2 0xBBE DUP3 SLOAD PUSH2 0x9C5 JUMP JUMPDEST PUSH2 0xBC9 DUP3 DUP3 DUP6 PUSH2 0xB09 JUMP JUMPDEST PUSH0 PUSH1 0x20 SWAP1 POP PUSH1 0x1F DUP4 GT PUSH1 0x1 DUP2 EQ PUSH2 0xBFA JUMPI PUSH0 DUP5 ISZERO PUSH2 0xBE8 JUMPI DUP3 DUP8 ADD MLOAD SWAP1 POP JUMPDEST PUSH2 0xBF2 DUP6 DUP3 PUSH2 0xB77 JUMP JUMPDEST DUP7 SSTORE POP PUSH2 0xC59 JUMP JUMPDEST PUSH1 0x1F NOT DUP5 AND PUSH2 0xC08 DUP7 PUSH2 0x9F5 JUMP JUMPDEST PUSH0 JUMPDEST DUP3 DUP2 LT ISZERO PUSH2 0xC2F JUMPI DUP5 DUP10 ADD MLOAD DUP3 SSTORE PUSH1 0x1 DUP3 ADD SWAP2 POP PUSH1 0x20 DUP6 ADD SWAP5 POP PUSH1 0x20 DUP2 ADD SWAP1 POP PUSH2 0xC0A JUMP JUMPDEST DUP7 DUP4 LT ISZERO PUSH2 0xC4C JUMPI DUP5 DUP10 ADD MLOAD PUSH2 0xC48 PUSH1 0x1F DUP10 AND DUP3 PUSH2 0xB5B JUMP JUMPDEST DUP4 SSTORE POP JUMPDEST PUSH1 0x1 PUSH1 0x2 DUP9 MUL ADD DUP9 SSTORE POP POP POP JUMPDEST POP POP POP POP POP POP JUMP JUMPDEST DUP3 DUP2 DUP4 CALLDATACOPY PUSH0 DUP4 DUP4 ADD MSTORE POP POP POP JUMP JUMPDEST PUSH0 PUSH2 0xC7A DUP4 DUP6 PUSH2 0x671 JUMP JUMPDEST SWAP4 POP PUSH2 0xC87 DUP4 DUP6 DUP5 PUSH2 0xC61 JUMP JUMPDEST PUSH2 0xC90 DUP4 PUSH2 0x68F JUMP JUMPDEST DUP5 ADD SWAP1 POP SWAP4 SWAP3 POP POP POP JUMP JUMPDEST PUSH0 PUSH1 0x80 DUP3 ADD SWAP1 POP PUSH2 0xCAE PUSH0 DUP4 ADD DUP9 PUSH2 0x700 JUMP JUMPDEST DUP2 DUP2 SUB PUSH1 0x20 DUP4 ADD MSTORE PUSH2 0xCC1 DUP2 DUP7 DUP9 PUSH2 0xC6F JUMP JUMPDEST SWAP1 POP PUSH2 0xCD0 PUSH1 0x40 DUP4 ADD DUP6 PUSH2 0x6D7 JUMP JUMPDEST PUSH2 0xCDD PUSH1 0x60 DUP4 ADD DUP5 PUSH2 0x700 JUMP JUMPDEST SWAP7 SWAP6 POP POP POP POP POP POP JUMP INVALID LOG2 PUSH5 0x6970667358 0x22 SLT KECCAK256 SLOAD 0xB4 0xD6 0x4D PUSH2 0xE73E 0xCA 0xEE DUP7 0xE7 BLOBBASEFEE SWAP13 0x2C LOG1 0x1E 0x4B LOG3 STATICCALL 0xB2 MSIZE MSTORE8 SLT DUP12 CALLDATASIZE PUSH4 0xA6E8114D CALLDATACOPY LOG3 PUSH5 0x736F6C6343 STOP ADDMOD BYTE STOP CALLER "
		},
		"gasEstimates": {
			"creation": {
				"codeDepositCost": "671400",
				"executionCost": "700",
				"totalCost": "672100"
			},
			"external": {
				"createTask(string,address)": "infinite",
				"markTaskCompleted(uint256)": "infinite",
				"taskIdCounter()": "2469",
				"tasks(uint256)": "infinite"
			}
		},
		"methodIdentifiers": {
			"createTask(string,address)": "71a244b3",
			"markTaskCompleted(uint256)": "000b2bda",
			"taskIdCounter()": "ad8ef91c",
			"tasks(uint256)": "8d977672"
		}
	},
	"abi": [
		{
			"anonymous": false,
			"inputs": [
				{
					"indexed": false,
					"internalType": "uint256",
					"name": "taskId",
					"type": "uint256"
				},
				{
					"indexed": false,
					"internalType": "address",
					"name": "assignee",
					"type": "address"
				}
			],
			"name": "TaskCompleted",
			"type": "event"
		},
		{
			"anonymous": false,
			"inputs": [
				{
					"indexed": false,
					"internalType": "uint256",
					"name": "taskId",
					"type": "uint256"
				},
				{
					"indexed": false,
					"internalType": "string",
					"name": "description",
					"type": "string"
				},
				{
					"indexed": false,
					"internalType": "address",
					"name": "assignee",
					"type": "address"
				},
				{
					"indexed": false,
					"internalType": "uint256",
					"name": "createdAt",
					"type": "uint256"
				}
			],
			"name": "TaskCreated",
			"type": "event"
		},
		{
			"inputs": [
				{
					"internalType": "string",
					"name": "description",
					"type": "string"
				},
				{
					"internalType": "address",
					"name": "assignee",
					"type": "address"
				}
			],
			"name": "createTask",
			"outputs": [],
			"stateMutability": "nonpayable",
			"type": "function"
		},
		{
			"inputs": [
				{
					"internalType": "uint256",
					"name": "taskId",
					"type": "uint256"
				}
			],
			"name": "markTaskCompleted",
			"outputs": [],
			"stateMutability": "nonpayable",
			"type": "function"
		},
		{
			"inputs": [],
			"name": "taskIdCounter",
			"outputs": [
				{
					"internalType": "uint256",
					"name": "",
					"type": "uint256"
				}
			],
			"stateMutability": "view",
			"type": "function"
		},
		{
			"inputs": [
				{
					"internalType": "uint256",
					"name": "",
					"type": "uint256"
				}
			],
			"name": "tasks",
			"outputs": [
				{
					"internalType": "string",
					"name": "description",
					"type": "string"
				},
				{
					"internalType": "address",
					"name": "assignee",
					"type": "address"
				},
				{
					"internalType": "bool",
					"name": "completed",
					"type": "bool"
				},
				{
					"internalType": "uint256",
					"name": "createdAt",
					"type": "uint256"
				}
			],
			"stateMutability": "view",
			"type": "function"
		}
	]
}